{
  "_format": "hh-sol-artifact-1",
  "contractName": "Ekodex",
  "sourceName": "contracts/Ekodex.sol",
  "abi": [
    {
      "inputs": [
        {
          "internalType": "address",
          "name": "_factory",
          "type": "address"
        },
        {
          "internalType": "address",
          "name": "_router",
          "type": "address"
        }
      ],
      "stateMutability": "nonpayable",
      "type": "constructor"
    },
    {
      "inputs": [
        {
          "internalType": "address",
          "name": "tokenA",
          "type": "address"
        },
        {
          "internalType": "address",
          "name": "tokenB",
          "type": "address"
        },
        {
          "internalType": "uint256",
          "name": "amountADesired",
          "type": "uint256"
        },
        {
          "internalType": "uint256",
          "name": "amountBDesired",
          "type": "uint256"
        },
        {
          "internalType": "uint256",
          "name": "amountAMin",
          "type": "uint256"
        },
        {
          "internalType": "uint256",
          "name": "amountBMin",
          "type": "uint256"
        },
        {
          "internalType": "address",
          "name": "to",
          "type": "address"
        }
      ],
      "name": "addLiquidity",
      "outputs": [
        {
          "internalType": "uint256",
          "name": "amountA",
          "type": "uint256"
        },
        {
          "internalType": "uint256",
          "name": "amountB",
          "type": "uint256"
        },
        {
          "internalType": "uint256",
          "name": "liquidity",
          "type": "uint256"
        }
      ],
      "stateMutability": "payable",
      "type": "function"
    },
    {
      "inputs": [
        {
          "internalType": "address",
          "name": "token",
          "type": "address"
        },
        {
          "internalType": "uint256",
          "name": "amountTokenDesired",
          "type": "uint256"
        },
        {
          "internalType": "uint256",
          "name": "amountTokenMin",
          "type": "uint256"
        },
        {
          "internalType": "uint256",
          "name": "amountETHMin",
          "type": "uint256"
        },
        {
          "internalType": "address",
          "name": "to",
          "type": "address"
        },
        {
          "internalType": "uint256",
          "name": "deadline",
          "type": "uint256"
        }
      ],
      "name": "addLiquidityEth",
      "outputs": [
        {
          "internalType": "uint256",
          "name": "amountToken",
          "type": "uint256"
        },
        {
          "internalType": "uint256",
          "name": "amountETH",
          "type": "uint256"
        },
        {
          "internalType": "uint256",
          "name": "liquidity",
          "type": "uint256"
        }
      ],
      "stateMutability": "payable",
      "type": "function"
    },
    {
      "inputs": [
        {
          "internalType": "address",
          "name": "tokenA",
          "type": "address"
        },
        {
          "internalType": "address",
          "name": "tokenB",
          "type": "address"
        }
      ],
      "name": "createPool",
      "outputs": [
        {
          "internalType": "address",
          "name": "",
          "type": "address"
        }
      ],
      "stateMutability": "nonpayable",
      "type": "function"
    },
    {
      "inputs": [
        {
          "internalType": "address",
          "name": "tokenA",
          "type": "address"
        },
        {
          "internalType": "address",
          "name": "tokenB",
          "type": "address"
        }
      ],
      "name": "getPool",
      "outputs": [
        {
          "internalType": "address",
          "name": "",
          "type": "address"
        }
      ],
      "stateMutability": "view",
      "type": "function"
    }
  ],
  "bytecode": "0x608060405234801561001057600080fd5b506040516108263803806108268339818101604052604081101561003357600080fd5b508051602090910151600080546001600160a01b039384166001600160a01b031991821617909155600180549390921692169190911790556107ac8061007a6000396000f3fe60806040526004361061003f5760003560e01c8063531aa03e14610044578063bff877541461009b578063ca3d6539146100ff578063e34336151461014f575b600080fd5b34801561005057600080fd5b5061007f6004803603604081101561006757600080fd5b506001600160a01b038135811691602001351661018a565b604080516001600160a01b039092168252519081900360200190f35b6100e1600480360360c08110156100b157600080fd5b506001600160a01b0381358116916020810135916040820135916060810135916080820135169060a00135610213565b60408051938452602084019290925282820152519081900360600190f35b6100e1600480360360e081101561011557600080fd5b506001600160a01b038135811691602081013582169160408201359160608101359160808201359160a08101359160c090910135166102d4565b34801561015b57600080fd5b5061007f6004803603604081101561017257600080fd5b506001600160a01b03813581169160200135166103d4565b600080546040805163e6a4390560e01b81526001600160a01b03868116600483015285811660248301529151919092169163e6a43905916044808301926020929190829003018186803b1580156101e057600080fd5b505afa1580156101f4573d6000803e3d6000fd5b505050506040513d602081101561020a57600080fd5b50519392505050565b6001546040805163f305d71960e01b81526001600160a01b038981166004830152602482018990526044820188905260648201879052858116608483015260a4820185905291516000938493849391169163f305d7199160c48082019260609290919082900301818787803b15801561028b57600080fd5b505af115801561029f573d6000803e3d6000fd5b505050506040513d60608110156102b557600080fd5b5080516020820151604090920151909b919a5098509650505050505050565b60008060006102e58a33308b61043f565b6102f18933308a61043f565b6102fc8a308a6105b1565b6103078930896105b1565b6001546040805162e8e33760e81b81526001600160a01b038d811660048301528c81166024830152604482018c905260648281018c9052608483018b905260a483018a905288821660c4840152420160e48301529151919092169163e8e33700916101048083019260609291908290030181600087803b15801561038a57600080fd5b505af115801561039e573d6000803e3d6000fd5b505050506040513d60608110156103b457600080fd5b5080516020820151604090920151909c919b509950975050505050505050565b60008054604080516364e329cb60e11b81526001600160a01b03868116600483015285811660248301529151919092169163c9c6539691604480830192602092919082900301818787803b15801561042b57600080fd5b505af11580156101f4573d6000803e3d6000fd5b604080516001600160a01b0385811660248301528481166044830152606480830185905283518084039091018152608490920183526020820180517bffffffffffffffffffffffffffffffffffffffffffffffffffffffff166323b872dd60e01b17815292518251600094606094938a169392918291908083835b602083106104d95780518252601f1990920191602091820191016104ba565b6001836020036101000a0380198251168184511680821785525050505050509050019150506000604051808303816000865af19150503d806000811461053b576040519150601f19603f3d011682016040523d82523d6000602084013e610540565b606091505b509150915081801561056e57508051158061056e575080806020019051602081101561056b57600080fd5b50515b6105a95760405162461bcd60e51b815260040180806020018281038252603181526020018061071b6031913960400191505060405180910390fd5b505050505050565b604080516001600160a01b038481166024830152604480830185905283518084039091018152606490920183526020820180517bffffffffffffffffffffffffffffffffffffffffffffffffffffffff1663095ea7b360e01b178152925182516000946060949389169392918291908083835b602083106106435780518252601f199092019160209182019101610624565b6001836020036101000a0380198251168184511680821785525050505050509050019150506000604051808303816000865af19150503d80600081146106a5576040519150601f19603f3d011682016040523d82523d6000602084013e6106aa565b606091505b50915091508180156106d85750805115806106d857508080602001905160208110156106d557600080fd5b50515b6107135760405162461bcd60e51b815260040180806020018281038252602b81526020018061074c602b913960400191505060405180910390fd5b505050505056fe5472616e7366657248656c7065723a3a7472616e7366657246726f6d3a207472616e7366657246726f6d206661696c65645472616e7366657248656c7065723a3a73616665417070726f76653a20617070726f7665206661696c6564a2646970667358221220836beb7671daf5190e4719e9934f784986121253fc12e6ca661a73344b8d320564736f6c63430006060033",
  "linkReferences": {},
  "deployedLinkReferences": {}
}