{
  "_format": "hh-sol-artifact-1",
  "contractName": "Ekodex",
  "sourceName": "contracts/Ekodex.sol",
  "abi": [
    {
      "anonymous": false,
      "inputs": [
        {
          "indexed": false,
          "internalType": "uint256",
          "name": "id",
          "type": "uint256"
        },
        {
          "indexed": false,
          "internalType": "address",
          "name": "tokenA",
          "type": "address"
        },
        {
          "indexed": false,
          "internalType": "address",
          "name": "tokenB",
          "type": "address"
        },
        {
          "indexed": false,
          "internalType": "address",
          "name": "amountA",
          "type": "address"
        },
        {
          "indexed": false,
          "internalType": "address",
          "name": "amountB",
          "type": "address"
        },
        {
          "indexed": false,
          "internalType": "uint256",
          "name": "liquidity",
          "type": "uint256"
        }
      ],
      "name": "Liquidity",
      "type": "event"
    },
    {
      "anonymous": false,
      "inputs": [
        {
          "indexed": false,
          "internalType": "address",
          "name": "tokenA",
          "type": "address"
        },
        {
          "indexed": false,
          "internalType": "address",
          "name": "tokenB",
          "type": "address"
        },
        {
          "indexed": false,
          "internalType": "uint256",
          "name": "amountA",
          "type": "uint256"
        },
        {
          "indexed": false,
          "internalType": "uint256",
          "name": "amountB",
          "type": "uint256"
        },
        {
          "indexed": false,
          "internalType": "uint256",
          "name": "liquidity",
          "type": "uint256"
        }
      ],
      "name": "Position",
      "type": "event"
    },
    {
      "inputs": [
        {
          "internalType": "address",
          "name": "_tokenA",
          "type": "address"
        },
        {
          "internalType": "address",
          "name": "_tokenB",
          "type": "address"
        },
        {
          "internalType": "uint256",
          "name": "_amountA",
          "type": "uint256"
        },
        {
          "internalType": "uint256",
          "name": "_amountB",
          "type": "uint256"
        }
      ],
      "name": "addLiquidity",
      "outputs": [],
      "stateMutability": "nonpayable",
      "type": "function"
    },
    {
      "inputs": [
        {
          "internalType": "address",
          "name": "tokenA",
          "type": "address"
        },
        {
          "internalType": "address",
          "name": "tokenB",
          "type": "address"
        }
      ],
      "name": "createPool",
      "outputs": [
        {
          "internalType": "address",
          "name": "",
          "type": "address"
        }
      ],
      "stateMutability": "nonpayable",
      "type": "function"
    },
    {
      "inputs": [
        {
          "internalType": "address",
          "name": "tokenA",
          "type": "address"
        },
        {
          "internalType": "address",
          "name": "tokenB",
          "type": "address"
        }
      ],
      "name": "getLiquidty",
      "outputs": [
        {
          "internalType": "uint256",
          "name": "",
          "type": "uint256"
        }
      ],
      "stateMutability": "view",
      "type": "function"
    },
    {
      "inputs": [
        {
          "internalType": "address",
          "name": "tokenA",
          "type": "address"
        },
        {
          "internalType": "address",
          "name": "tokenB",
          "type": "address"
        }
      ],
      "name": "getPool",
      "outputs": [
        {
          "internalType": "address",
          "name": "",
          "type": "address"
        }
      ],
      "stateMutability": "view",
      "type": "function"
    },
    {
      "inputs": [
        {
          "internalType": "address",
          "name": "_tokenA",
          "type": "address"
        },
        {
          "internalType": "address",
          "name": "_tokenB",
          "type": "address"
        }
      ],
      "name": "removeLiquidity",
      "outputs": [],
      "stateMutability": "nonpayable",
      "type": "function"
    },
    {
      "inputs": [
        {
          "internalType": "uint256",
          "name": "_amountIn",
          "type": "uint256"
        },
        {
          "internalType": "address[]",
          "name": "_path",
          "type": "address[]"
        }
      ],
      "name": "swap",
      "outputs": [
        {
          "internalType": "uint256[]",
          "name": "amounts",
          "type": "uint256[]"
        }
      ],
      "stateMutability": "nonpayable",
      "type": "function"
    },
    {
      "inputs": [
        {
          "internalType": "uint256",
          "name": "_amountOutMin",
          "type": "uint256"
        },
        {
          "internalType": "address[]",
          "name": "_path",
          "type": "address[]"
        }
      ],
      "name": "swapExactETHForTokens",
      "outputs": [],
      "stateMutability": "nonpayable",
      "type": "function"
    }
  ],
  "bytecode": "0x608060405234801561001057600080fd5b50610e1a806100206000396000f3fe608060405234801561001057600080fd5b506004361061007d5760003560e01c8063b3bbba511161005b578063b3bbba511461013c578063cf6c62ea146101b3578063e3433615146101ef578063e34b5c821461021d5761007d565b8063531aa03e146100825780637f38fba1146100cc5780639cf38f7c1461010c575b600080fd5b6100b06004803603604081101561009857600080fd5b506001600160a01b03813581169160200135166102e4565b604080516001600160a01b039092168252519081900360200190f35b6100fa600480360360408110156100e257600080fd5b506001600160a01b038135811691602001351661037d565b60408051918252519081900360200190f35b61013a6004803603604081101561012257600080fd5b506001600160a01b038135811691602001351661048e565b005b61013a6004803603604081101561015257600080fd5b8135919081019060408101602082013564010000000081111561017457600080fd5b82018360208201111561018657600080fd5b803590602001918460208302840111640100000000831117156101a857600080fd5b5090925090506106e9565b61013a600480360360808110156101c957600080fd5b506001600160a01b038135811691602081013590911690604081013590606001356108fe565b6100b06004803603604081101561020557600080fd5b506001600160a01b0381358116916020013516610b3f565b6102946004803603604081101561023357600080fd5b8135919081019060408101602082013564010000000081111561025557600080fd5b82018360208201111561026757600080fd5b8035906020019184602083028401116401000000008311171561028957600080fd5b509092509050610bba565b60408051602080825283518183015283519192839290830191858101910280838360005b838110156102d05781810151838201526020016102b8565b505050509050019250505060405180910390f35b6040805163e6a4390560e01b81526001600160a01b038481166004830152831660248201529051600091735c69bee701ef814a2b6a3edd4b1652cb9cc5aa6f9163e6a4390591604480820192602092909190829003018186803b15801561034a57600080fd5b505afa15801561035e573d6000803e3d6000fd5b505050506040513d602081101561037457600080fd5b50519392505050565b6040805163e6a4390560e01b81526001600160a01b0384811660048301528316602482015290516000918291735c69bee701ef814a2b6a3edd4b1652cb9cc5aa6f9163e6a43905916044808301926020929190829003018186803b1580156103e457600080fd5b505afa1580156103f8573d6000803e3d6000fd5b505050506040513d602081101561040e57600080fd5b5051604080516370a0823160e01b815230600482015290519192506001600160a01b038316916370a0823191602480820192602092909190829003018186803b15801561045a57600080fd5b505afa15801561046e573d6000803e3d6000fd5b505050506040513d602081101561048457600080fd5b5051949350505050565b6040805163e6a4390560e01b81526001600160a01b038481166004830152831660248201529051600091735c69bee701ef814a2b6a3edd4b1652cb9cc5aa6f9163e6a4390591604480820192602092909190829003018186803b1580156104f457600080fd5b505afa158015610508573d6000803e3d6000fd5b505050506040513d602081101561051e57600080fd5b5051604080516370a0823160e01b815230600482015290519192506000916001600160a01b038416916370a08231916024808301926020929190829003018186803b15801561056c57600080fd5b505afa158015610580573d6000803e3d6000fd5b505050506040513d602081101561059657600080fd5b50516040805163095ea7b360e01b8152737a250d5630b4cf539739df2c5dacb4c659f2488d60048201526024810183905290519192506001600160a01b0384169163095ea7b3916044808201926020929091908290030181600087803b1580156105ff57600080fd5b505af1158015610613573d6000803e3d6000fd5b505050506040513d602081101561062957600080fd5b505060408051635d5155ef60e11b81526001600160a01b038681166004830152851660248201526044810183905260016064820181905260848201523060a4820152600a420160c482015281516000928392737a250d5630b4cf539739df2c5dacb4c659f2488d9263baa2abde9260e48084019391929182900301818787803b1580156106b557600080fd5b505af11580156106c9573d6000803e3d6000fd5b505050506040513d60408110156106df57600080fd5b5050505050505050565b818160008181106106f657fe5b6040805163095ea7b360e01b8152737a250d5630b4cf539739df2c5dacb4c659f2488d6004820152602481018890529051602092830294909401356001600160a01b03169363095ea7b39350604480830193928290030181600087803b15801561075f57600080fd5b505af1158015610773573d6000803e3d6000fd5b505050506040513d602081101561078957600080fd5b5050604051637ff36ab560e01b8152600481018481523360448301819052600a42016064840181905260806024850190815260848501869052737a250d5630b4cf539739df2c5dacb4c659f2488d94637ff36ab59489948994899491939092919060a401866020870280828437600081840152601f19601f8201169050808301925050509650505050505050600060405180830381600087803b15801561082f57600080fd5b505af1158015610843573d6000803e3d6000fd5b505050506040513d6000823e601f3d908101601f19168201604052602081101561086c57600080fd5b810190808051604051939291908464010000000082111561088c57600080fd5b9083019060208201858111156108a157600080fd5b82518660208202830111640100000000821117156108be57600080fd5b82525081516020918201928201910280838360005b838110156108eb5781810151838201526020016108d3565b5050505090500160405250505050505050565b6040805163095ea7b360e01b8152737a250d5630b4cf539739df2c5dacb4c659f2488d60048201526024810184905290516001600160a01b0386169163095ea7b39160448083019260209291908290030181600087803b15801561096157600080fd5b505af1158015610975573d6000803e3d6000fd5b505050506040513d602081101561098b57600080fd5b50506040805163095ea7b360e01b8152737a250d5630b4cf539739df2c5dacb4c659f2488d60048201526024810183905290516001600160a01b0385169163095ea7b39160448083019260209291908290030181600087803b1580156109f057600080fd5b505af1158015610a04573d6000803e3d6000fd5b505050506040513d6020811015610a1a57600080fd5b50506040805162e8e33760e81b81526001600160a01b03868116600483015285166024820152604481018490526064810183905260016084820181905260a48201523060c4820152600a420160e48201529051600091737a250d5630b4cf539739df2c5dacb4c659f2488d9163e8e33700916101048082019260609290919082900301818787803b158015610aae57600080fd5b505af1158015610ac2573d6000803e3d6000fd5b505050506040513d6060811015610ad857600080fd5b5060409081015181516001600160a01b03808916825287166020820152808301869052606081018590526080810182905291519092507ffccd1c01de520141317d0d0d53997e269a1c5abc6eace4c1b4fe1a0fcc5b83de9181900360a00190a15050505050565b604080516364e329cb60e11b81526001600160a01b038481166004830152831660248201529051600091735c69bee701ef814a2b6a3edd4b1652cb9cc5aa6f9163c9c653969160448082019260209290919082900301818787803b158015610ba657600080fd5b505af115801561035e573d6000803e3d6000fd5b606082826000818110610bc957fe5b6040805163095ea7b360e01b8152737a250d5630b4cf539739df2c5dacb4c659f2488d6004820152602481018990529051602092830294909401356001600160a01b03169363095ea7b39350604480830193928290030181600087803b158015610c3257600080fd5b505af1158015610c46573d6000803e3d6000fd5b505050506040513d6020811015610c5c57600080fd5b50506040516338ed173960e01b8152600481018581526001602483018190523360648401819052600a42016084850181905260a06044860190815260a48601889052606095737a250d5630b4cf539739df2c5dacb4c659f2488d956338ed1739958c9590948c948c949293919260c401866020870280828437600081840152601f19601f820116905080830192505050975050505050505050600060405180830381600087803b158015610d0f57600080fd5b505af1158015610d23573d6000803e3d6000fd5b505050506040513d6000823e601f3d908101601f191682016040526020811015610d4c57600080fd5b8101908080516040519392919084640100000000821115610d6c57600080fd5b908301906020820185811115610d8157600080fd5b8251866020820283011164010000000082111715610d9e57600080fd5b82525081516020918201928201910280838360005b83811015610dcb578181015183820152602001610db3565b505050509190910160405250929897505050505050505056fea2646970667358221220a0d1625dd2f93a9ff6165ab201020ad2ec3d34688dc660113cfa76f6c4b9d8c064736f6c63430006060033",
  "linkReferences": {},
  "deployedLinkReferences": {}
}